{
  "_format": "hh-sol-artifact-1",
  "contractName": "BountyPlatform",
  "sourceName": "contracts/BountyPlatform.sol",
  "abi": [
    {
      "inputs": [],
      "stateMutability": "nonpayable",
      "type": "constructor"
    },
    {
      "anonymous": false,
      "inputs": [
        {
          "indexed": false,
          "internalType": "uint256",
          "name": "organisationId",
          "type": "uint256"
        },
        {
          "indexed": false,
          "internalType": "uint256",
          "name": "bountyId",
          "type": "uint256"
        },
        {
          "indexed": true,
          "internalType": "address",
          "name": "hunterAddress",
          "type": "address"
        },
        {
          "indexed": false,
          "internalType": "bool",
          "name": "acceptanceStatus",
          "type": "bool"
        }
      ],
      "name": "LogAcceptSubmission",
      "type": "event"
    },
    {
      "anonymous": false,
      "inputs": [
        {
          "indexed": false,
          "internalType": "uint256",
          "name": "organisationId",
          "type": "uint256"
        },
        {
          "indexed": false,
          "internalType": "string",
          "name": "title",
          "type": "string"
        },
        {
          "indexed": true,
          "internalType": "address payable",
          "name": "bountyCreator",
          "type": "address"
        },
        {
          "indexed": false,
          "internalType": "string",
          "name": "descriptionGithubLink",
          "type": "string"
        },
        {
          "indexed": false,
          "internalType": "uint256",
          "name": "bountyAmount",
          "type": "uint256"
        },
        {
          "indexed": false,
          "internalType": "uint256",
          "name": "startTime",
          "type": "uint256"
        },
        {
          "indexed": false,
          "internalType": "uint256",
          "name": "endTIme",
          "type": "uint256"
        }
      ],
      "name": "LogBounty",
      "type": "event"
    },
    {
      "anonymous": false,
      "inputs": [
        {
          "indexed": false,
          "internalType": "uint256",
          "name": "organisationId",
          "type": "uint256"
        },
        {
          "indexed": false,
          "internalType": "uint256",
          "name": "bountyId",
          "type": "uint256"
        },
        {
          "indexed": true,
          "internalType": "address",
          "name": "bountyHounterAddress",
          "type": "address"
        }
      ],
      "name": "LogJoinBounty",
      "type": "event"
    },
    {
      "anonymous": false,
      "inputs": [
        {
          "indexed": false,
          "internalType": "uint256",
          "name": "id",
          "type": "uint256"
        },
        {
          "indexed": true,
          "internalType": "address",
          "name": "memberAdress",
          "type": "address"
        }
      ],
      "name": "LogMember",
      "type": "event"
    },
    {
      "anonymous": false,
      "inputs": [
        {
          "indexed": false,
          "internalType": "uint256",
          "name": "id",
          "type": "uint256"
        },
        {
          "indexed": false,
          "internalType": "string",
          "name": "name",
          "type": "string"
        },
        {
          "indexed": false,
          "internalType": "string",
          "name": "logoIPFS",
          "type": "string"
        },
        {
          "indexed": false,
          "internalType": "address payable",
          "name": "creatorAddress",
          "type": "address"
        },
        {
          "indexed": false,
          "internalType": "uint256",
          "name": "totalBountiesCreated",
          "type": "uint256"
        },
        {
          "indexed": false,
          "internalType": "uint256",
          "name": "totalAmountSpent",
          "type": "uint256"
        },
        {
          "indexed": false,
          "internalType": "uint256",
          "name": "totalMembers",
          "type": "uint256"
        }
      ],
      "name": "LogOrganisation",
      "type": "event"
    },
    {
      "anonymous": false,
      "inputs": [
        {
          "indexed": false,
          "internalType": "uint256",
          "name": "id",
          "type": "uint256"
        },
        {
          "indexed": false,
          "internalType": "uint256",
          "name": "organizationId",
          "type": "uint256"
        },
        {
          "indexed": true,
          "internalType": "address",
          "name": "memberAdress",
          "type": "address"
        }
      ],
      "name": "LogOrganisationMember",
      "type": "event"
    },
    {
      "anonymous": false,
      "inputs": [
        {
          "indexed": false,
          "internalType": "uint256",
          "name": "organisationId",
          "type": "uint256"
        },
        {
          "indexed": false,
          "internalType": "uint256",
          "name": "bountyId",
          "type": "uint256"
        },
        {
          "indexed": false,
          "internalType": "uint256",
          "name": "amount",
          "type": "uint256"
        }
      ],
      "name": "LogPayBountyWinners",
      "type": "event"
    },
    {
      "anonymous": false,
      "inputs": [
        {
          "indexed": false,
          "internalType": "uint256",
          "name": "submissionId",
          "type": "uint256"
        },
        {
          "indexed": false,
          "internalType": "uint256",
          "name": "organisationId",
          "type": "uint256"
        },
        {
          "indexed": false,
          "internalType": "uint256",
          "name": "bountyId",
          "type": "uint256"
        },
        {
          "indexed": true,
          "internalType": "address payable",
          "name": "participant",
          "type": "address"
        },
        {
          "indexed": false,
          "internalType": "string",
          "name": "submissionLink",
          "type": "string"
        },
        {
          "indexed": false,
          "internalType": "bool",
          "name": "acceptanceStatus",
          "type": "bool"
        },
        {
          "indexed": false,
          "internalType": "uint256",
          "name": "earnings",
          "type": "uint256"
        }
      ],
      "name": "LogSubmitWork",
      "type": "event"
    },
    {
      "anonymous": false,
      "inputs": [
        {
          "indexed": false,
          "internalType": "uint256",
          "name": "organisationId",
          "type": "uint256"
        },
        {
          "indexed": false,
          "internalType": "uint256",
          "name": "bountyId",
          "type": "uint256"
        },
        {
          "indexed": false,
          "internalType": "string",
          "name": "submissionLink",
          "type": "string"
        }
      ],
      "name": "LogUpdateSubmission",
      "type": "event"
    },
    {
      "inputs": [
        {
          "internalType": "uint256",
          "name": "_organisationId",
          "type": "uint256"
        },
        {
          "internalType": "uint256",
          "name": "_bountyId",
          "type": "uint256"
        },
        {
          "internalType": "address",
          "name": "hunterAddress",
          "type": "address"
        }
      ],
      "name": "acceptSubmissions",
      "outputs": [],
      "stateMutability": "nonpayable",
      "type": "function"
    },
    {
      "inputs": [],
      "name": "createAccount",
      "outputs": [],
      "stateMutability": "nonpayable",
      "type": "function"
    },
    {
      "inputs": [
        {
          "internalType": "uint256",
          "name": "organisationId",
          "type": "uint256"
        },
        {
          "internalType": "string",
          "name": "title",
          "type": "string"
        },
        {
          "internalType": "string",
          "name": "descriptionGithubLink",
          "type": "string"
        },
        {
          "internalType": "uint256",
          "name": "startTime",
          "type": "uint256"
        },
        {
          "internalType": "uint256",
          "name": "endTime",
          "type": "uint256"
        }
      ],
      "name": "createBounty",
      "outputs": [],
      "stateMutability": "payable",
      "type": "function"
    },
    {
      "inputs": [
        {
          "internalType": "string",
          "name": "name",
          "type": "string"
        },
        {
          "internalType": "string",
          "name": "logoIPFS",
          "type": "string"
        }
      ],
      "name": "createOrganisation",
      "outputs": [],
      "stateMutability": "nonpayable",
      "type": "function"
    },
    {
      "inputs": [
        {
          "internalType": "uint256",
          "name": "_organisationId",
          "type": "uint256"
        },
        {
          "internalType": "uint256",
          "name": "_bountyId",
          "type": "uint256"
        }
      ],
      "name": "deleteHunterSubmission",
      "outputs": [],
      "stateMutability": "nonpayable",
      "type": "function"
    },
    {
      "inputs": [],
      "name": "getAllBountiesCount",
      "outputs": [
        {
          "internalType": "uint256",
          "name": "",
          "type": "uint256"
        }
      ],
      "stateMutability": "view",
      "type": "function"
    },
    {
      "inputs": [
        {
          "internalType": "uint256",
          "name": "_organisationId",
          "type": "uint256"
        },
        {
          "internalType": "uint256",
          "name": "_bountyid",
          "type": "uint256"
        }
      ],
      "name": "getBountyStatus",
      "outputs": [
        {
          "internalType": "uint256",
          "name": "",
          "type": "uint256"
        }
      ],
      "stateMutability": "view",
      "type": "function"
    },
    {
      "inputs": [],
      "name": "getMemberCount",
      "outputs": [
        {
          "internalType": "uint256",
          "name": "",
          "type": "uint256"
        }
      ],
      "stateMutability": "view",
      "type": "function"
    },
    {
      "inputs": [],
      "name": "getMembers",
      "outputs": [
        {
          "components": [
            {
              "internalType": "uint256",
              "name": "id",
              "type": "uint256"
            },
            {
              "internalType": "address",
              "name": "memberAdress",
              "type": "address"
            }
          ],
          "internalType": "struct BountyPlatform.Member[]",
          "name": "",
          "type": "tuple[]"
        }
      ],
      "stateMutability": "view",
      "type": "function"
    },
    {
      "inputs": [
        {
          "internalType": "uint256",
          "name": "id",
          "type": "uint256"
        }
      ],
      "name": "getOrganisation",
      "outputs": [
        {
          "internalType": "uint256",
          "name": "_id",
          "type": "uint256"
        },
        {
          "internalType": "string",
          "name": "name",
          "type": "string"
        },
        {
          "internalType": "string",
          "name": "logoIPFS",
          "type": "string"
        },
        {
          "internalType": "address",
          "name": "creator",
          "type": "address"
        },
        {
          "internalType": "uint256",
          "name": "totalBountiesCreated",
          "type": "uint256"
        },
        {
          "internalType": "uint256",
          "name": "totalAmountSpent",
          "type": "uint256"
        },
        {
          "internalType": "uint256",
          "name": "totalMembers",
          "type": "uint256"
        }
      ],
      "stateMutability": "view",
      "type": "function"
    },
    {
      "inputs": [
        {
          "internalType": "uint256",
          "name": "_organisationId",
          "type": "uint256"
        }
      ],
      "name": "getOrganisationBounties",
      "outputs": [
        {
          "components": [
            {
              "internalType": "uint256",
              "name": "organisationId",
              "type": "uint256"
            },
            {
              "internalType": "uint256",
              "name": "bountyId",
              "type": "uint256"
            },
            {
              "internalType": "string",
              "name": "title",
              "type": "string"
            },
            {
              "internalType": "address payable",
              "name": "bountyCreator",
              "type": "address"
            },
            {
              "internalType": "string",
              "name": "descriptionGithubLink",
              "type": "string"
            },
            {
              "internalType": "uint256",
              "name": "bountyAmount",
              "type": "uint256"
            },
            {
              "internalType": "uint256",
              "name": "startTime",
              "type": "uint256"
            },
            {
              "internalType": "uint256",
              "name": "endTime",
              "type": "uint256"
            },
            {
              "internalType": "enum BountyPlatform.BountyStatus",
              "name": "status",
              "type": "uint8"
            },
            {
              "internalType": "uint256",
              "name": "totalBounterHunters",
              "type": "uint256"
            },
            {
              "internalType": "uint256",
              "name": "totalSubmittedWorks",
              "type": "uint256"
            }
          ],
          "internalType": "struct BountyPlatform.Bounty[]",
          "name": "",
          "type": "tuple[]"
        }
      ],
      "stateMutability": "view",
      "type": "function"
    },
    {
      "inputs": [
        {
          "internalType": "uint256",
          "name": "_organisationId",
          "type": "uint256"
        }
      ],
      "name": "getOrganisationMembers",
      "outputs": [
        {
          "components": [
            {
              "internalType": "uint256",
              "name": "id",
              "type": "uint256"
            },
            {
              "internalType": "address",
              "name": "memberAdress",
              "type": "address"
            }
          ],
          "internalType": "struct BountyPlatform.Member[]",
          "name": "",
          "type": "tuple[]"
        }
      ],
      "stateMutability": "view",
      "type": "function"
    },
    {
      "inputs": [],
      "name": "getOrganisations",
      "outputs": [
        {
          "components": [
            {
              "internalType": "uint256",
              "name": "id",
              "type": "uint256"
            },
            {
              "internalType": "string",
              "name": "name",
              "type": "string"
            },
            {
              "internalType": "string",
              "name": "logoIPFS",
              "type": "string"
            },
            {
              "internalType": "address payable",
              "name": "creatorAddress",
              "type": "address"
            },
            {
              "internalType": "uint256",
              "name": "totalBountiesCreated",
              "type": "uint256"
            },
            {
              "internalType": "uint256",
              "name": "totalAmountSpent",
              "type": "uint256"
            },
            {
              "internalType": "uint256",
              "name": "totalMembers",
              "type": "uint256"
            }
          ],
          "internalType": "struct BountyPlatform.Organisation[]",
          "name": "",
          "type": "tuple[]"
        }
      ],
      "stateMutability": "view",
      "type": "function"
    },
    {
      "inputs": [],
      "name": "getSubmissionCount",
      "outputs": [
        {
          "internalType": "uint256",
          "name": "",
          "type": "uint256"
        }
      ],
      "stateMutability": "view",
      "type": "function"
    },
    {
      "inputs": [
        {
          "internalType": "uint256",
          "name": "_organisationId",
          "type": "uint256"
        },
        {
          "internalType": "uint256",
          "name": "_bountyId",
          "type": "uint256"
        }
      ],
      "name": "getUserSubmission",
      "outputs": [
        {
          "components": [
            {
              "internalType": "uint256",
              "name": "submissionId",
              "type": "uint256"
            },
            {
              "internalType": "uint256",
              "name": "organisationId",
              "type": "uint256"
            },
            {
              "internalType": "uint256",
              "name": "bountyId",
              "type": "uint256"
            },
            {
              "internalType": "address payable",
              "name": "participant",
              "type": "address"
            },
            {
              "internalType": "string",
              "name": "submissionLink",
              "type": "string"
            },
            {
              "internalType": "bool",
              "name": "acceptanceStatus",
              "type": "bool"
            },
            {
              "internalType": "uint256",
              "name": "earnings",
              "type": "uint256"
            }
          ],
          "internalType": "struct BountyPlatform.SubmitWork",
          "name": "",
          "type": "tuple"
        }
      ],
      "stateMutability": "view",
      "type": "function"
    },
    {
      "inputs": [
        {
          "internalType": "uint256",
          "name": "_bountyId",
          "type": "uint256"
        },
        {
          "internalType": "uint256",
          "name": "_organisationId",
          "type": "uint256"
        }
      ],
      "name": "joinBounty",
      "outputs": [],
      "stateMutability": "nonpayable",
      "type": "function"
    },
    {
      "inputs": [
        {
          "internalType": "uint256",
          "name": "_organisationId",
          "type": "uint256"
        }
      ],
      "name": "joinOrganisation",
      "outputs": [],
      "stateMutability": "nonpayable",
      "type": "function"
    },
    {
      "inputs": [
        {
          "internalType": "uint256",
          "name": "_organisationId",
          "type": "uint256"
        },
        {
          "internalType": "uint256",
          "name": "_bountyId",
          "type": "uint256"
        }
      ],
      "name": "payBountyWinners",
      "outputs": [],
      "stateMutability": "payable",
      "type": "function"
    },
    {
      "inputs": [
        {
          "internalType": "uint256",
          "name": "_organisationId",
          "type": "uint256"
        },
        {
          "internalType": "uint256",
          "name": "_bountyId",
          "type": "uint256"
        }
      ],
      "name": "removeBounty",
      "outputs": [],
      "stateMutability": "nonpayable",
      "type": "function"
    },
    {
      "inputs": [
        {
          "internalType": "uint256",
          "name": "_organizationId",
          "type": "uint256"
        }
      ],
      "name": "removeOrganization",
      "outputs": [],
      "stateMutability": "nonpayable",
      "type": "function"
    },
    {
      "inputs": [
        {
          "internalType": "uint256",
          "name": "_bountyId",
          "type": "uint256"
        },
        {
          "internalType": "uint256",
          "name": "_organisationId",
          "type": "uint256"
        },
        {
          "internalType": "string",
          "name": "_submissionLink",
          "type": "string"
        }
      ],
      "name": "submitWork",
      "outputs": [],
      "stateMutability": "nonpayable",
      "type": "function"
    },
    {
      "inputs": [
        {
          "internalType": "uint256",
          "name": "_organisationId",
          "type": "uint256"
        },
        {
          "internalType": "uint256",
          "name": "_bountyId",
          "type": "uint256"
        },
        {
          "internalType": "string",
          "name": "_submissionLink",
          "type": "string"
        }
      ],
      "name": "updateSubmission",
      "outputs": [],
      "stateMutability": "nonpayable",
      "type": "function"
    },
    {
      "stateMutability": "payable",
      "type": "receive"
    }
  ],
  "bytecode": "0x608060405234801561001057600080fd5b50600580546001600160a01b0319163317905561415a806100326000396000f3fe6080604052600436106101395760003560e01c80639dca362f116100ab578063def79c6c1161006f578063def79c6c14610354578063eaffd42914610374578063f05c1d6114610396578063f0daac1c146103b6578063f4156a25146103d6578063fb746580146103e957600080fd5b80639dca362f146102d55780639e6a5fa0146102ea5780639eab5253146102ff578063a35eab0d14610314578063c34f0cf71461033457600080fd5b8063827369d9116100fd578063827369d914610210578063895f750f146102305780638a8485b81461025d5780638b9483811461028b578063997072f7146102ab5780639999d2ae146102c057600080fd5b806310efb62e146101455780631b2029621461017b5780634efa0f4f146101a857806350ce1d9b146101ca57806375543074146101dd57600080fd5b3661014057005b600080fd5b34801561015157600080fd5b50610165610160366004613501565b610409565b6040516101729190613598565b60405180910390f35b34801561018757600080fd5b5061019b61019636600461369b565b610630565b60405161017291906136bd565b3480156101b457600080fd5b506101c86101c336600461369b565b610792565b005b6101c86101d836600461369b565b610ad4565b3480156101e957600080fd5b506101fd6101f8366004613501565b611084565b604051610172979695949392919061372c565b34801561021c57600080fd5b506101c861022b36600461369b565b6112d4565b34801561023c57600080fd5b5061025061024b366004613501565b611584565b6040516101729190613787565b34801561026957600080fd5b5061027d61027836600461369b565b611601565b604051908152602001610172565b34801561029757600080fd5b506101c86102a6366004613882565b611696565b3480156102b757600080fd5b5060025461027d565b3480156102cc57600080fd5b5060045461027d565b3480156102e157600080fd5b506101c8611a16565b3480156102f657600080fd5b5060015461027d565b34801561030b57600080fd5b50610250611b91565b34801561032057600080fd5b506101c861032f366004613501565b611c06565b34801561034057600080fd5b506101c861034f3660046138e6565b611cfd565b34801561036057600080fd5b506101c861036f366004613936565b6121ba565b34801561038057600080fd5b506103896124d9565b604051610172919061397b565b3480156103a257600080fd5b506101c86103b1366004613501565b612694565b3480156103c257600080fd5b506101c86103d13660046138e6565b612811565b6101c86103e4366004613a2f565b612b80565b3480156103f557600080fd5b506101c861040436600461369b565b61326e565b6060600c6000838152602001908152602001600020805480602002602001604051908101604052809291908181526020016000905b8282101561062557838290600052602060002090600b020160405180610160016040529081600082015481526020016001820154815260200160028201805461048690613aae565b80601f01602080910402602001604051908101604052809291908181526020018280546104b290613aae565b80156104ff5780601f106104d4576101008083540402835291602001916104ff565b820191906000526020600020905b8154815290600101906020018083116104e257829003601f168201915b505050918352505060038201546001600160a01b0316602082015260048201805460409092019161052f90613aae565b80601f016020809104026020016040519081016040528092919081815260200182805461055b90613aae565b80156105a85780601f1061057d576101008083540402835291602001916105a8565b820191906000526020600020905b81548152906001019060200180831161058b57829003601f168201915b5050509183525050600582015460208201526006820154604082015260078201546060820152600882015460809091019060ff1660028111156105ed576105ed613560565b60028111156105fe576105fe613560565b815260200160098201548152602001600a820154815250508152602001906001019061043e565b505050509050919050565b61067b6040518060e0016040528060008152602001600081526020016000815260200160006001600160a01b0316815260200160608152602001600015158152602001600081525090565b3360009081526017602090815260408083208684528252808320858452825291829020825160e0810184528154815260018201549281019290925260028101549282019290925260038201546001600160a01b031660608201526004820180549192916080840191906106ed90613aae565b80601f016020809104026020016040519081016040528092919081815260200182805461071990613aae565b80156107665780601f1061073b57610100808354040283529160200191610766565b820191906000526020600020905b81548152906001019060200180831161074957829003601f168201915b5050509183525050600582015460ff161515602082015260069091015460409091015290505b92915050565b6000818152600c6020526040902080548291908190839081106107b7576107b7613ae8565b90600052602060002090600b0201600601544210156107f15760405162461bcd60e51b81526004016107e890613afe565b60405180910390fd5b80828154811061080357610803613ae8565b90600052602060002090600b0201600701544210156108345760405162461bcd60e51b81526004016107e890613b2e565b6000848152600c60205260409020805485918591839082908290811061085c5761085c613ae8565b90600052602060002090600b0201600101541461088b5760405162461bcd60e51b81526004016107e890613b65565b336000908152601460209081526040808320858452825280832086845290915290205460ff166108cd5760405162461bcd60e51b81526004016107e890613b94565b6000868152600c6020526040902080548190889081106108ef576108ef613ae8565b60009182526020909120600b90910201600301546001600160a01b0316331461092a5760405162461bcd60e51b81526004016107e890613bd7565b8054819061093a90600190613c24565b8154811061094a5761094a613ae8565b90600052602060002090600b020181888154811061096a5761096a613ae8565b90600052602060002090600b02016000820154816000015560018201548160010155600282018160020190816109a09190613c86565b5060038281015490820180546001600160a01b0319166001600160a01b039092169190911790556004808201906109d990840182613c86565b50600582810154908201556006808301549082015560078083015490820155600880830154908201805460ff9092169160ff19166001836002811115610a2157610a21613560565b021790555060098281015490820155600a918201549101558054819080610a4a57610a4a613d67565b600082815260208120600b600019909301928302018181556001810182905590610a7760028301826134ab565b6003820180546001600160a01b0319169055610a976004830160006134ab565b50600060058201819055600682018190556007820181905560088201805460ff1916905560098201819055600a9091015590555050505050505050565b600554600160a01b900460ff1615610b1f5760405162461bcd60e51b815260206004820152600e60248201526d4e6f2072652d656e7472616e637960901b60448201526064016107e8565b6005805460ff60a01b1916600160a01b1790556000828152600c6020526040902080548391839133919083908110610b5957610b59613ae8565b600091825260209091206003600b9092020101546001600160a01b031614610b935760405162461bcd60e51b81526004016107e890613d7d565b6000838152600c602052604090208054849186918390829082908110610bbb57610bbb613ae8565b90600052602060002090600b02016001015414610bea5760405162461bcd60e51b81526004016107e890613b65565b336000908152601460209081526040808320858452825280832086845290915290205460ff16610c2c5760405162461bcd60e51b81526004016107e890613b94565b6000868152600c602052604090208054879190819083908110610c5157610c51613ae8565b90600052602060002090600b020160060154421015610c825760405162461bcd60e51b81526004016107e890613afe565b808281548110610c9457610c94613ae8565b90600052602060002090600b020160070154421015610cc55760405162461bcd60e51b81526004016107e890613b2e565b6000898152600c6020526040812080548a908110610ce557610ce5613ae8565b90600052602060002090600b0201905060008160050154905060008082471015610d515760405162461bcd60e51b815260206004820152601d60248201527f496e73756666696369656e7420636f6e74726163742062616c616e636500000060448201526064016107e8565b60005b600a54811015610e10578d600a8281548110610d7257610d72613ae8565b906000526020600020906007020160010154148015610db457508c600a8281548110610da057610da0613ae8565b906000526020600020906007020160020154145b8015610deb5750600a8181548110610dce57610dce613ae8565b600091825260209091206005600790920201015460ff1615156001145b15610dfe5782610dfa81613db4565b9350505b80610e0881613db4565b915050610d54565b5060008211610e615760405162461bcd60e51b815260206004820152601d60248201527f4e6f206163636570746564207375626d697373696f6e7320666f756e6400000060448201526064016107e8565b610e6b8284613dcd565b90506000610e798383613def565b905047811115610ede5760405162461bcd60e51b815260206004820152602a60248201527f496e73756666696369656e7420636f6e74726163742062616c616e636520666f60448201526939103a3930b739b332b960b11b60648201526084016107e8565b60005b600a54811015611025578e600a8281548110610eff57610eff613ae8565b906000526020600020906007020160010154148015610f4157508d600a8281548110610f2d57610f2d613ae8565b906000526020600020906007020160020154145b8015610f785750600a8181548110610f5b57610f5b613ae8565b600091825260209091206005600790920201015460ff1615156001145b1561101357600a8181548110610f9057610f90613ae8565b600091825260208220600360079092020101546040516001600160a01b039091169185156108fc02918691818181858888f19350505050158015610fd8573d6000803e3d6000fd5b5082600a8281548110610fed57610fed613ae8565b9060005260206000209060070201600601600082825461100d9190613e06565b90915550505b8061101d81613db4565b915050610ee1565b50604080518f8152602081018f90529081018390527fb885bbc0d1b231f7586921272add84ac223bada880c846c1a4a623e4fbacce839060600160405180910390a150506005805460ff60a01b19169055505050505050505050505050565b6000606080600080600080600688815481106110a2576110a2613ae8565b906000526020600020906007020160000154600689815481106110c7576110c7613ae8565b906000526020600020906007020160010160068a815481106110eb576110eb613ae8565b906000526020600020906007020160020160068b8154811061110f5761110f613ae8565b906000526020600020906007020160030160009054906101000a90046001600160a01b031660068c8154811061114757611147613ae8565b90600052602060002090600702016004015460068d8154811061116c5761116c613ae8565b90600052602060002090600702016005015460068e8154811061119157611191613ae8565b9060005260206000209060070201600601548580546111af90613aae565b80601f01602080910402602001604051908101604052809291908181526020018280546111db90613aae565b80156112285780601f106111fd57610100808354040283529160200191611228565b820191906000526020600020905b81548152906001019060200180831161120b57829003601f168201915b5050505050955084805461123b90613aae565b80601f016020809104026020016040519081016040528092919081815260200182805461126790613aae565b80156112b45780601f10611289576101008083540402835291602001916112b4565b820191906000526020600020905b81548152906001019060200180831161129757829003601f168201915b505050505094509650965096509650965096509650919395979092949650565b3360009081526012602052604090205460ff166113035760405162461bcd60e51b81526004016107e890613e19565b336000908152601560209081526040808320848452909152902054819060ff1661133f5760405162461bcd60e51b81526004016107e890613e5c565b806006828154811061135357611353613ae8565b906000526020600020906007020160000154146113825760405162461bcd60e51b81526004016107e890613ea9565b6000838152600c60205260409020805484908290829081106113a6576113a6613ae8565b90600052602060002090600b020160010154146113d55760405162461bcd60e51b81526004016107e890613b65565b336000908152601460209081526040808320868452825280832087845290915290205460ff161561145d5760405162461bcd60e51b815260206004820152602c60248201527f596f752061726520616c72656164792061207061727469636970616e74206f6660448201526b207468697320626f756e747960a01b60648201526084016107e8565b4281858154811061147057611470613ae8565b90600052602060002090600b02016007015410156114a05760405162461bcd60e51b81526004016107e890613ee0565b60018185815481106114b4576114b4613ae8565b90600052602060002090600b020160090160008282546114d49190613e06565b90915550503360008181526019602090815260408083208784528252808320888452825280832080546001808201835582865284862090910180546001600160a01b031916871790558585526014845282852089865284528285208a8652845293829020805460ff191690941790935580518781529182018890529192917fa770b4a6702019b88a013be33923b1874d4c905c6a5e877197db52932eb5e78e910160405180910390a25050505050565b6060600f6000838152602001908152602001600020805480602002602001604051908101604052809291908181526020016000905b828210156106255760008481526020908190206040805180820190915260028502909101805482526001908101546001600160a01b03168284015290835290920191016115b9565b6000828152600c602052604081208054829182918590811061162557611625613ae8565b90600052602060002090600b02019050806006015442101561164a576000915061166f565b8060070154421161165e576001915061166f565b806007015442111561166f57600291505b600554600160a81b900460ff16600281111561168d5761168d613560565b95945050505050565b3360009081526012602052604090205460ff166116c55760405162461bcd60e51b81526004016107e890613e19565b816000805b600654811015611735578280519060200120600682815481106116ef576116ef613ae8565b906000526020600020906007020160010160405161170d9190613f0a565b6040518091039020036117235760019150611735565b8061172d81613db4565b9150506116ca565b5080156117975760405162461bcd60e51b815260206004820152602a60248201527f4f7267616e697a6174696f6e20776974682074686174206e616d6520616c72656044820152696164792065786973747360b01b60648201526084016107e8565b600080548152600e6020526040902084516117f45760405162461bcd60e51b815260206004820152601a60248201527f4f7267616e69736174696f6e206e616d6520726571756972656400000000000060448201526064016107e8565b60008451116118455760405162461bcd60e51b815260206004820152601d60248201527f4f7267616e69736174696f6e206c6f676f20697320726571756972656400000060448201526064016107e8565b60008054825580806001840161185b8982613f80565b506002840161186a8882613f80565b50600484018390556005840182905560068085018290556003850180546001600160a01b031916339081179091556040805160e081018252600080548252602082018d81529282018c905260608201939093526080810187905260a0810186905260c08101859052835460018101855593909252815160079093027ff652222313e28459528d920b65115c16c04f3efc82aaedc97be59f3f377c0d3f810193845590519192917ff652222313e28459528d920b65115c16c04f3efc82aaedc97be59f3f377c0d409091019061193f9082613f80565b50604082015160028201906119549082613f80565b5060608201516003820180546001600160a01b0319166001600160a01b039092169190911790556080820151600482015560a0820151600582015560c0909101516006909101556000805490806119aa83613db4565b9091555050336000818152601a6020526040808220805460ff19166001179055905490517fedf617efeffc15bbafe74ba4f21aa754d5f662ed143c1982b4c41bcce41aa6b192611a0492918c918c9189908990899061372c565b60405180910390a15050505050505050565b3360009081526012602052604090205460ff1615611a6e5760405162461bcd60e51b81526020600482015260156024820152741058d8dbdd5b9d08185b1c9958591e48195e1a5cdd605a1b60448201526064016107e8565b336000818152601160209081526040808320600280548255600180830180546001600160a01b03199081168917909155845180860190955282548552948401968752600880549182018155865292517ff3f7a9fe364faab93b216da50a3214154f22a0a2b415b23a84c8169e8b636ee39382029384015594517ff3f7a9fe364faab93b216da50a3214154f22a0a2b415b23a84c8169e8b636ee490920180549093166001600160a01b0390921691909117909155825490929091611b3183613db4565b90915550503360008181526012602052604090819020805460ff1916600117905560025490517f16dbea9e6c62a3d68d52370cb8a42062bfbb274308a5365738a79642c72f58a491611b869190815260200190565b60405180910390a250565b60606008805480602002602001604051908101604052809291908181526020016000905b82821015611bfd5760008481526020908190206040805180820190915260028502909101805482526001908101546001600160a01b0316828401529083529092019101611bb5565b50505050905090565b6000818152600e602052604090206003015481906001600160a01b03163314611c415760405162461bcd60e51b81526004016107e890613bd7565b60068281548110611c5457611c54613ae8565b60009182526020909120600790910201600301546001600160a01b03163314611c8f5760405162461bcd60e51b81526004016107e890613bd7565b60068281548110611ca257611ca2613ae8565b60009182526020822060079091020181815590611cc260018301826134ab565b611cd06002830160006134ab565b506003810180546001600160a01b0319169055600060048201819055600582018190556006909101555050565b3360009081526012602052604090205460ff16611d2c5760405162461bcd60e51b81526004016107e890613e19565b336000908152601560209081526040808320858452909152902054829060ff16611d685760405162461bcd60e51b81526004016107e890613e5c565b8060068281548110611d7c57611d7c613ae8565b90600052602060002090600702016000015414611dab5760405162461bcd60e51b81526004016107e890613ea9565b6000838152600c602052604090208054849186918390829082908110611dd357611dd3613ae8565b90600052602060002090600b02016001015414611e025760405162461bcd60e51b81526004016107e890613b65565b336000908152601460209081526040808320858452825280832086845290915290205460ff16611e445760405162461bcd60e51b81526004016107e890613b94565b3360009081526013602052604090205460ff1615611e9c5760405162461bcd60e51b8152602060048201526015602482015274165bdd48185b1c9958591e481cdd589b5a5d1d1959605a1b60448201526064016107e8565b6000878152600c602052604090208054429082908a908110611ec057611ec0613ae8565b90600052602060002090600b0201600701541015611ef05760405162461bcd60e51b81526004016107e890613ee0565b808881548110611f0257611f02613ae8565b90600052602060002090600b020160060154421015611f335760405162461bcd60e51b81526004016107e890613afe565b3360009081526017602090815260408083208a845282528083208b8452909152812060058101805460ff191690556004805482558101611f738982613f80565b506003810180546001600160a01b0319163317905560018101899055600281018a9055600681018054839190600090611fad908490613e06565b90915550506040805160e0810182526004548152602081018b81529181018c81523360608301908152608083018c8152600060a0850181905260c08501889052600a8054600181018255915284517fc65a7bb8d6351c1cf70c95a316cc6a92839c986682d98bc35f958f4883f9d2a8600790920291820190815595517fc65a7bb8d6351c1cf70c95a316cc6a92839c986682d98bc35f958f4883f9d2a982015592517fc65a7bb8d6351c1cf70c95a316cc6a92839c986682d98bc35f958f4883f9d2aa84015590517fc65a7bb8d6351c1cf70c95a316cc6a92839c986682d98bc35f958f4883f9d2ab830180546001600160a01b0319166001600160a01b03909216919091179055519192917fc65a7bb8d6351c1cf70c95a316cc6a92839c986682d98bc35f958f4883f9d2ac909101906120e89082613f80565b5060a082015160058201805460ff191691151591909117905560c0909101516006909101556004805490600061211d83613db4565b9190505550600160136000336001600160a01b03166001600160a01b0316815260200190815260200160002060006101000a81548160ff021916908315150217905550336001600160a01b03167f6de6dffdc759fa37433a5973fd211595feabee2e5015de6f7e9d3b4eea89079c6004548b8d8c6000886040516121a69695949392919061403a565b60405180910390a250505050505050505050565b6000828152600c6020526040902080548391859183908290829081106121e2576121e2613ae8565b90600052602060002090600b020160010154146122115760405162461bcd60e51b81526004016107e890613b65565b336000908152601460209081526040808320858452825280832086845290915290205460ff166122535760405162461bcd60e51b81526004016107e890613b94565b6000868152600c602052604090208054879187913391908390811061227a5761227a613ae8565b600091825260209091206003600b9092020101546001600160a01b0316146122b45760405162461bcd60e51b81526004016107e890613d7d565b6000878152600c6020526040902080548891908190839081106122d9576122d9613ae8565b90600052602060002090600b02016006015442101561230a5760405162461bcd60e51b81526004016107e890613afe565b80828154811061231c5761231c613ae8565b90600052602060002090600b02016007015442101561234d5760405162461bcd60e51b81526004016107e890613b2e565b6001600160a01b03881660009081526017602090815260408083208d845282528083208c8452909152812060058101805460ff19166001179055905b600a5481101561247f578b600a82815481106123a7576123a7613ae8565b9060005260206000209060070201600101541480156123e957508a600a82815481106123d5576123d5613ae8565b906000526020600020906007020160020154145b801561242c5750896001600160a01b0316600a828154811061240d5761240d613ae8565b60009182526020909120600360079092020101546001600160a01b0316145b1561246d576001600a828154811061244657612446613ae8565b60009182526020909120600790910201600501805460ff191691151591909117905561247f565b8061247781613db4565b915050612389565b50604080518c8152602081018c905260018183015290516001600160a01b038b16917f995704e97116d1a6ef6a581766959cef232aecef4c869437016cb623f3e94246919081900360600190a25050505050505050505050565b60606006805480602002602001604051908101604052809291908181526020016000905b82821015611bfd57838290600052602060002090600702016040518060e00160405290816000820154815260200160018201805461253a90613aae565b80601f016020809104026020016040519081016040528092919081815260200182805461256690613aae565b80156125b35780601f10612588576101008083540402835291602001916125b3565b820191906000526020600020905b81548152906001019060200180831161259657829003601f168201915b505050505081526020016002820180546125cc90613aae565b80601f01602080910402602001604051908101604052809291908181526020018280546125f890613aae565b80156126455780601f1061261a57610100808354040283529160200191612645565b820191906000526020600020905b81548152906001019060200180831161262857829003601f168201915b505050918352505060038201546001600160a01b0316602080830191909152600483015460408301526005830154606083015260069092015460809091015290825260019290920191016124fd565b3360009081526012602052604090205460ff166126c35760405162461bcd60e51b81526004016107e890613e19565b33600090815260156020908152604080832084845290915290205460ff16156126fe5760405162461bcd60e51b81526004016107e890613e5c565b60016006828154811061271357612713613ae8565b906000526020600020906007020160060160008282546127339190613e06565b90915550506000818152600f602090815260408083208151808301909252600280548352338385019081528254600180820185558488529587209451920290930190815591519190920180546001600160a01b0319166001600160a01b039092169190911790556003805491926127a983613db4565b9091555050336000818152601560209081526040808320868452825291829020805460ff1916600117905560035482519081529081018590527fb79503e171b679983ab6f2cd2ca7ddc737b19b5695e756c9f68919b93069a090910160405180910390a25050565b3360009081526012602052604090205460ff166128405760405162461bcd60e51b81526004016107e890613e19565b336000908152601560209081526040808320868452909152902054839060ff1661287c5760405162461bcd60e51b81526004016107e890613e5c565b806006828154811061289057612890613ae8565b906000526020600020906007020160000154146128bf5760405162461bcd60e51b81526004016107e890613ea9565b6000838152600c6020526040902080548491869183908290829081106128e7576128e7613ae8565b90600052602060002090600b020160010154146129165760405162461bcd60e51b81526004016107e890613b65565b336000908152601460209081526040808320858452825280832086845290915290205460ff166129585760405162461bcd60e51b81526004016107e890613b94565b6000868152600c60209081526040808320338452601783528184208b855283528184208a8552909252909120600481016129928882613f80565b5060038101546001600160a01b031633146129bf5760405162461bcd60e51b81526004016107e890614074565b8188815481106129d1576129d1613ae8565b90600052602060002090600b020160060154421015612a025760405162461bcd60e51b81526004016107e890613afe565b42828981548110612a1557612a15613ae8565b90600052602060002090600b0201600701541015612a455760405162461bcd60e51b81526004016107e890613ee0565b60005b600a54811015612b395789600a8281548110612a6657612a66613ae8565b906000526020600020906007020160010154148015612aa8575088600a8281548110612a9457612a94613ae8565b906000526020600020906007020160020154145b8015612aeb5750336001600160a01b0316600a8281548110612acc57612acc613ae8565b60009182526020909120600360079092020101546001600160a01b0316145b15612b275787600a8281548110612b0457612b04613ae8565b90600052602060002090600702016004019081612b219190613f80565b50612b39565b80612b3181613db4565b915050612a48565b507fde198e72ee516ea544067ce06fe486c999e09aabe3e3bac9d451f6291696a31e898989604051612b6d939291906140bb565b60405180910390a1505050505050505050565b3360009081526012602052604090205460ff16612baf5760405162461bcd60e51b81526004016107e890613e19565b336000908152601560209081526040808320888452909152902054859060ff16612beb5760405162461bcd60e51b81526004016107e890613e5c565b8060068281548110612bff57612bff613ae8565b90600052602060002090600702016000015414612c2e5760405162461bcd60e51b81526004016107e890613ea9565b600554600160a01b900460ff1615612c795760405162461bcd60e51b815260206004820152600e60248201526d4e6f2072652d656e7472616e637960901b60448201526064016107e8565b6005805460ff60a01b1916600160a01b179055336000908152600b60205260408120546006805483929183918b908110612cb557612cb5613ae8565b9060005260206000209060070201905034816005016000828254612cd99190613e06565b925050819055506001816004016000828254612cf59190613e06565b909155505060008a8152600c60205260409020428811612d675760405162461bcd60e51b815260206004820152602760248201527f426f756e74792073746172742074696d65206d75737420626520696e207468656044820152662066757475726560c81b60648201526084016107e8565b878711612dc75760405162461bcd60e51b815260206004820152602860248201527f426f756e747920656e642074696d65206d7573742062652061667465722073746044820152676172742074696d6560c01b60648201526084016107e8565b60038201546001600160a01b03163314612e495760405162461bcd60e51b815260206004820152603b60248201527f596f7520617265206e6f7420617574686f726973656420746f20706f7374206260448201527f6f756e747920666f722074686973206f7267616e69736174696f6e000000000060648201526084016107e8565b60003411612ea85760405162461bcd60e51b815260206004820152602660248201527f426f756e747920616d6f756e742073686f756c6420626520677265617465722060448201526507468616e20360d41b60648201526084016107e8565b6005805460ff60a81b19169081905560408051610160810182528d815260015460208201529081018c9052336060820152608081018b90523460a082015260c081018a905260e081018990528291610100820190600160a81b900460ff166002811115612f1757612f17613560565b8152602080820189905260409182018890528354600181810186556000958652948290208451600b9092020190815590830151938101939093558101519091906002820190612f669082613f80565b5060608201516003820180546001600160a01b0319166001600160a01b0390921691909117905560808201516004820190612fa19082613f80565b5060a0820151600582015560c0820151600682015560e0820151600782015561010082015160088201805460ff19166001836002811115612fe457612fe4613560565b0217905550610120820151816009015561014082015181600a0155505060076040518061016001604052808d815260200160015481526020018c8152602001336001600160a01b031681526020018b81526020013481526020018a8152602001898152602001600560159054906101000a900460ff16600281111561306b5761306b613560565b8152602080820189905260409182018890528354600181810186556000958652948290208451600b90920201908155908301519381019390935581015190919060028201906130ba9082613f80565b5060608201516003820180546001600160a01b0319166001600160a01b03909216919091179055608082015160048201906130f59082613f80565b5060a0820151600582015560c0820151600682015560e0820151600782015561010082015160088201805460ff1916600183600281111561313857613138613560565b0217905550610120820151600982015561014090910151600a909101558261315f81613db4565b60018054919550909150600061317483613db4565b9091555050604051600090309034908381818185875af1925050503d80600081146131bb576040519150601f19603f3d011682016040523d82523d6000602084013e6131c0565b606091505b50509050806132085760405162461bcd60e51b81526020600482015260146024820152732330b4b632b2103a379039b2b7321022ba3432b960611b60448201526064016107e8565b336001600160a01b03167f7f525b52319efa59220972521cedbc5ed8835e26dcbede28bef46a736a7f10f08d8d8d348e8e60405161324b969594939291906140da565b60405180910390a250506005805460ff60a01b1916905550505050505050505050565b336000908152601560209081526040808320858452909152902054829060ff166132aa5760405162461bcd60e51b81526004016107e890613e5c565b80600682815481106132be576132be613ae8565b906000526020600020906007020160000154146132ed5760405162461bcd60e51b81526004016107e890613ea9565b6000828152600c60205260409020805483918591839082908290811061331557613315613ae8565b90600052602060002090600b020160010154146133445760405162461bcd60e51b81526004016107e890613b65565b336000908152601460209081526040808320858452825280832086845290915290205460ff166133865760405162461bcd60e51b81526004016107e890613b94565b6000868152600c60205260409020805487918791339190839081106133ad576133ad613ae8565b600091825260209091206003600b9092020101546001600160a01b0316146133e75760405162461bcd60e51b81526004016107e890613d7d565b3360008181526017602090815260408083208c845282528083208b84529091529020600381015490916001600160a01b03909116146134385760405162461bcd60e51b81526004016107e890614074565b3360009081526017602090815260408083208c845282528083208b8452909152812081815560018101829055600281018290556003810180546001600160a01b03191690559061348b60048301826134ab565b5060058101805460ff191690556000600690910155505050505050505050565b5080546134b790613aae565b6000825580601f106134c7575050565b601f0160209004906000526020600020908101906134e591906134e8565b50565b5b808211156134fd57600081556001016134e9565b5090565b60006020828403121561351357600080fd5b5035919050565b6000815180845260005b8181101561354057602081850181015186830182015201613524565b506000602082860101526020601f19601f83011685010191505092915050565b634e487b7160e01b600052602160045260246000fd5b6003811061359457634e487b7160e01b600052602160045260246000fd5b9052565b60006020808301818452808551808352604092508286019150828160051b87010184880160005b8381101561368d57603f1989840301855281516101608151855288820151898601528782015181898701526135f68287018261351a565b915050606080830151613613828801826001600160a01b03169052565b50506080808301518683038288015261362c838261351a565b9250505060a080830151818701525060c080830151818701525060e08083015181870152506101008083015161366482880182613576565b5050610120828101519086015261014091820151919094015293860193908601906001016135bf565b509098975050505050505050565b600080604083850312156136ae57600080fd5b50508035926020909101359150565b6020815281516020820152602082015160408201526040820151606082015260018060a01b0360608301511660808201526000608083015160e060a084015261370a61010084018261351a565b905060a0840151151560c084015260c084015160e08401528091505092915050565b87815260e06020820152600061374560e083018961351a565b8281036040840152613757818961351a565b6001600160a01b039790971660608401525050608081019390935260a083019190915260c0909101529392505050565b602080825282518282018190526000919060409081850190868401855b828110156137d2578151805185528601516001600160a01b03168685015292840192908501906001016137a4565b5091979650505050505050565b634e487b7160e01b600052604160045260246000fd5b600082601f83011261380657600080fd5b813567ffffffffffffffff80821115613821576138216137df565b604051601f8301601f19908116603f01168101908282118183101715613849576138496137df565b8160405283815286602085880101111561386257600080fd5b836020870160208301376000602085830101528094505050505092915050565b6000806040838503121561389557600080fd5b823567ffffffffffffffff808211156138ad57600080fd5b6138b9868387016137f5565b935060208501359150808211156138cf57600080fd5b506138dc858286016137f5565b9150509250929050565b6000806000606084860312156138fb57600080fd5b8335925060208401359150604084013567ffffffffffffffff81111561392057600080fd5b61392c868287016137f5565b9150509250925092565b60008060006060848603121561394b57600080fd5b833592506020840135915060408401356001600160a01b038116811461397057600080fd5b809150509250925092565b60006020808301818452808551808352604092508286019150828160051b87010184880160005b8381101561368d57603f19898403018552815160e08151855288820151818a8701526139d08287018261351a565b91505087820151858203898701526139e8828261351a565b6060848101516001600160a01b0316908801526080808501519088015260a0848101519088015260c0938401519390960192909252505093860193908601906001016139a2565b600080600080600060a08688031215613a4757600080fd5b85359450602086013567ffffffffffffffff80821115613a6657600080fd5b613a7289838a016137f5565b95506040880135915080821115613a8857600080fd5b50613a95888289016137f5565b9598949750949560608101359550608001359392505050565b600181811c90821680613ac257607f821691505b602082108103613ae257634e487b7160e01b600052602260045260246000fd5b50919050565b634e487b7160e01b600052603260045260246000fd5b602080825260169082015275109bdd5b9d1e481a185cc81b9bdd081cdd185c9d195960521b604082015260600190565b6020808252601f908201527f426f756e747920706572696f6420686173206e6f7420656e6465642079657400604082015260600190565b602080825260159082015274109bdd5b9d1e48191bd95cc81b9bdd08195e1a5cdd605a1b604082015260600190565b60208082526023908201527f596f752068617665206e6f7420796574206a6f696e6564207468697320626f756040820152626e747960e81b606082015260800190565b60208082526017908201527f596f7520617265206e6f74207468652063726561746f72000000000000000000604082015260600190565b634e487b7160e01b600052601160045260246000fd5b8181038181111561078c5761078c613c0e565b601f821115613c8157600081815260208120601f850160051c81016020861015613c5e5750805b601f850160051c820191505b81811015613c7d57828155600101613c6a565b5050505b505050565b818103613c91575050565b613c9b8254613aae565b67ffffffffffffffff811115613cb357613cb36137df565b613cc781613cc18454613aae565b84613c37565b6000601f821160018114613cfb5760008315613ce35750848201545b600019600385901b1c1916600184901b178455613d60565b600085815260209020601f19841690600086815260209020845b83811015613d355782860154825560019586019590910190602001613d15565b5085831015613d535781850154600019600388901b60f8161c191681555b50505060018360011b0184555b5050505050565b634e487b7160e01b600052603160045260246000fd5b6020808252601e908201527f596f7520617265206e6f742074686520626f756e74792063726561746f720000604082015260600190565b600060018201613dc657613dc6613c0e565b5060010190565b600082613dea57634e487b7160e01b600052601260045260246000fd5b500490565b808202811582820484141761078c5761078c613c0e565b8082018082111561078c5761078c613c0e565b60208082526023908201527f596f752068617665206e6f742079657420736574757020796f7572206163636f6040820152621d5b9d60ea1b606082015260800190565b6020808252602d908201527f596f7520617265206e6f74207965742061206d656d626572206f66207468697360408201526c1037b933b0b734b9b0ba34b7b760991b606082015260800190565b6020808252601b908201527f4f7267616e69736174696f6e20646f6573206e6f742065786973740000000000604082015260600190565b60208082526010908201526f109bdd5b9d1e481a185cc8195b99195960821b604082015260600190565b6000808354613f1881613aae565b60018281168015613f305760018114613f4557613f74565b60ff1984168752821515830287019450613f74565b8760005260208060002060005b85811015613f6b5781548a820152908401908201613f52565b50505082870194505b50929695505050505050565b815167ffffffffffffffff811115613f9a57613f9a6137df565b613fa881613cc18454613aae565b602080601f831160018114613fdd5760008415613fc55750858301515b600019600386901b1c1916600185901b178555613c7d565b600085815260208120601f198616915b8281101561400c57888601518255948401946001909101908401613fed565b508582101561402a5787850151600019600388901b60f8161c191681555b5050505050600190811b01905550565b86815285602082015284604082015260c06060820152600061405f60c083018661351a565b93151560808301525060a00152949350505050565b60208082526027908201527f596f7520617265206e6f7420746865206f776e6572206f66207468652073756260408201526636b4b9b9b4b7b760c91b606082015260800190565b83815282602082015260606040820152600061168d606083018461351a565b86815260c0602082015260006140f360c083018861351a565b8281036040840152614105818861351a565b60608401969096525050608081019290925260a090910152939250505056fea26469706673582212203a5d56464a542dfd9c7986fb49137d53172d9c1f6a6a22c9d93547ed6efae71164736f6c63430008120033",
  "linkReferences": {},
  "deployedLinkReferences": {}
}